{
  "contractName": "Auth",
  "abi": [
    {
      "anonymous": false,
      "inputs": [
        {
          "indexed": false,
          "internalType": "string",
          "name": "firstName",
          "type": "string"
        },
        {
          "indexed": false,
          "internalType": "string",
          "name": "lastName",
          "type": "string"
        },
        {
          "indexed": false,
          "internalType": "uint256",
          "name": "age",
          "type": "uint256"
        }
      ],
      "name": "PatientAdded",
      "type": "event"
    },
    {
      "anonymous": false,
      "inputs": [
        {
          "indexed": false,
          "internalType": "string",
          "name": "username",
          "type": "string"
        },
        {
          "indexed": false,
          "internalType": "string",
          "name": "email",
          "type": "string"
        },
        {
          "indexed": false,
          "internalType": "string",
          "name": "password",
          "type": "string"
        }
      ],
      "name": "UserCreated",
      "type": "event"
    },
    {
      "inputs": [],
      "name": "patientCount",
      "outputs": [
        {
          "internalType": "uint256",
          "name": "",
          "type": "uint256"
        }
      ],
      "stateMutability": "view",
      "type": "function",
      "constant": true
    },
    {
      "inputs": [
        {
          "internalType": "uint256",
          "name": "",
          "type": "uint256"
        }
      ],
      "name": "patientsList",
      "outputs": [
        {
          "internalType": "string",
          "name": "firstName",
          "type": "string"
        },
        {
          "internalType": "string",
          "name": "lastName",
          "type": "string"
        },
        {
          "internalType": "uint256",
          "name": "age",
          "type": "uint256"
        }
      ],
      "stateMutability": "view",
      "type": "function",
      "constant": true
    },
    {
      "inputs": [],
      "name": "userCount",
      "outputs": [
        {
          "internalType": "uint256",
          "name": "",
          "type": "uint256"
        }
      ],
      "stateMutability": "view",
      "type": "function",
      "constant": true
    },
    {
      "inputs": [
        {
          "internalType": "string",
          "name": "",
          "type": "string"
        }
      ],
      "name": "usersList",
      "outputs": [
        {
          "internalType": "string",
          "name": "username",
          "type": "string"
        },
        {
          "internalType": "string",
          "name": "email",
          "type": "string"
        },
        {
          "internalType": "string",
          "name": "password",
          "type": "string"
        }
      ],
      "stateMutability": "view",
      "type": "function",
      "constant": true
    },
    {
      "inputs": [
        {
          "internalType": "string",
          "name": "_username",
          "type": "string"
        },
        {
          "internalType": "string",
          "name": "_email",
          "type": "string"
        },
        {
          "internalType": "string",
          "name": "_password",
          "type": "string"
        }
      ],
      "name": "createUser",
      "outputs": [],
      "stateMutability": "nonpayable",
      "type": "function"
    },
    {
      "inputs": [
        {
          "internalType": "string",
          "name": "_firstName",
          "type": "string"
        },
        {
          "internalType": "string",
          "name": "_lastName",
          "type": "string"
        },
        {
          "internalType": "uint256",
          "name": "_age",
          "type": "uint256"
        }
      ],
      "name": "addPatient",
      "outputs": [],
      "stateMutability": "nonpayable",
      "type": "function"
    }
  ],
  "bytecode": "0x608060405260008055600060015534801561001957600080fd5b50610c96806100296000396000f3fe608060405234801561001057600080fd5b50600436106100625760003560e01c806307973ccf146100675780630a72fa43146100855780634cbce6ac146100a157806359ae069b146100d3578063a0303c41146100ef578063dc65bef41461010d575b600080fd5b61006f61013f565b60405161007c91906106d2565b60405180910390f35b61009f600480360381019061009a9190610873565b610145565b005b6100bb60048036038101906100b691906108fe565b610214565b6040516100ca939291906109cf565b60405180910390f35b6100ed60048036038101906100e89190610a1b565b6103ec565b005b6100f76104d6565b60405161010491906106d2565b60405180910390f35b61012760048036038101906101229190610ac2565b6104dc565b60405161013693929190610aef565b60405180910390f35b60005481565b6001600081548092919061015890610b63565b919050555060405180606001604052808481526020018381526020018281525060036000600154815260200190815260200160002060008201518160000190805190602001906101a9929190610616565b5060208201518160010190805190602001906101c6929190610616565b50604082015181600201559050507f2d7ab14be0f6cfdd712fedd0b401a6e589e00f955c7bd4986aa528f411d2298783838360405161020793929190610aef565b60405180910390a1505050565b60028180516020810182018051848252602083016020850120818352809550505050505060009150905080600001805461024d90610bdb565b80601f016020809104026020016040519081016040528092919081815260200182805461027990610bdb565b80156102c65780601f1061029b576101008083540402835291602001916102c6565b820191906000526020600020905b8154815290600101906020018083116102a957829003601f168201915b5050505050908060010180546102db90610bdb565b80601f016020809104026020016040519081016040528092919081815260200182805461030790610bdb565b80156103545780601f1061032957610100808354040283529160200191610354565b820191906000526020600020905b81548152906001019060200180831161033757829003601f168201915b50505050509080600201805461036990610bdb565b80601f016020809104026020016040519081016040528092919081815260200182805461039590610bdb565b80156103e25780601f106103b7576101008083540402835291602001916103e2565b820191906000526020600020905b8154815290600101906020018083116103c557829003601f168201915b5050505050905083565b6000808154809291906103fe90610b63565b919050555060405180606001604052808481526020018381526020018281525060028360405161042e9190610c49565b90815260200160405180910390206000820151816000019080519060200190610458929190610616565b506020820151816001019080519060200190610475929190610616565b506040820151816002019080519060200190610492929190610616565b509050507fdd75d3192535501dcaeaed99fb80f0f968daa8fb6d037d943472244718aa42908383836040516104c9939291906109cf565b60405180910390a1505050565b60015481565b60036020528060005260406000206000915090508060000180546104ff90610bdb565b80601f016020809104026020016040519081016040528092919081815260200182805461052b90610bdb565b80156105785780601f1061054d57610100808354040283529160200191610578565b820191906000526020600020905b81548152906001019060200180831161055b57829003601f168201915b50505050509080600101805461058d90610bdb565b80601f01602080910402602001604051908101604052809291908181526020018280546105b990610bdb565b80156106065780601f106105db57610100808354040283529160200191610606565b820191906000526020600020905b8154815290600101906020018083116105e957829003601f168201915b5050505050908060020154905083565b82805461062290610bdb565b90600052602060002090601f016020900481019282610644576000855561068b565b82601f1061065d57805160ff191683800117855561068b565b8280016001018555821561068b579182015b8281111561068a57825182559160200191906001019061066f565b5b509050610698919061069c565b5090565b5b808211156106b557600081600090555060010161069d565b5090565b6000819050919050565b6106cc816106b9565b82525050565b60006020820190506106e760008301846106c3565b92915050565b6000604051905090565b600080fd5b600080fd5b600080fd5b600080fd5b6000601f19601f8301169050919050565b7f4e487b7100000000000000000000000000000000000000000000000000000000600052604160045260246000fd5b6107548261070b565b810181811067ffffffffffffffff821117156107735761077261071c565b5b80604052505050565b60006107866106ed565b9050610792828261074b565b919050565b600067ffffffffffffffff8211156107b2576107b161071c565b5b6107bb8261070b565b9050602081019050919050565b82818337600083830152505050565b60006107ea6107e584610797565b61077c565b90508281526020810184848401111561080657610805610706565b5b6108118482856107c8565b509392505050565b600082601f83011261082e5761082d610701565b5b813561083e8482602086016107d7565b91505092915050565b610850816106b9565b811461085b57600080fd5b50565b60008135905061086d81610847565b92915050565b60008060006060848603121561088c5761088b6106f7565b5b600084013567ffffffffffffffff8111156108aa576108a96106fc565b5b6108b686828701610819565b935050602084013567ffffffffffffffff8111156108d7576108d66106fc565b5b6108e386828701610819565b92505060406108f48682870161085e565b9150509250925092565b600060208284031215610914576109136106f7565b5b600082013567ffffffffffffffff811115610932576109316106fc565b5b61093e84828501610819565b91505092915050565b600081519050919050565b600082825260208201905092915050565b60005b83811015610981578082015181840152602081019050610966565b83811115610990576000848401525b50505050565b60006109a182610947565b6109ab8185610952565b93506109bb818560208601610963565b6109c48161070b565b840191505092915050565b600060608201905081810360008301526109e98186610996565b905081810360208301526109fd8185610996565b90508181036040830152610a118184610996565b9050949350505050565b600080600060608486031215610a3457610a336106f7565b5b600084013567ffffffffffffffff811115610a5257610a516106fc565b5b610a5e86828701610819565b935050602084013567ffffffffffffffff811115610a7f57610a7e6106fc565b5b610a8b86828701610819565b925050604084013567ffffffffffffffff811115610aac57610aab6106fc565b5b610ab886828701610819565b9150509250925092565b600060208284031215610ad857610ad76106f7565b5b6000610ae68482850161085e565b91505092915050565b60006060820190508181036000830152610b098186610996565b90508181036020830152610b1d8185610996565b9050610b2c60408301846106c3565b949350505050565b7f4e487b7100000000000000000000000000000000000000000000000000000000600052601160045260246000fd5b6000610b6e826106b9565b91507fffffffffffffffffffffffffffffffffffffffffffffffffffffffffffffffff821415610ba157610ba0610b34565b5b600182019050919050565b7f4e487b7100000000000000000000000000000000000000000000000000000000600052602260045260246000fd5b60006002820490506001821680610bf357607f821691505b60208210811415610c0757610c06610bac565b5b50919050565b600081905092915050565b6000610c2382610947565b610c2d8185610c0d565b9350610c3d818560208601610963565b80840191505092915050565b6000610c558284610c18565b91508190509291505056fea264697066735822122078c6e336eff801768e3ebfad8e4eba5cbeb5b3158a7cd81914b2d776866f175464736f6c634300080b0033",
  "immutableReferences": {},
  "source": "// SPDX-License-Identifier: MIT\r\npragma solidity >=0.4.22 <0.9.0;\r\n\r\ncontract Auth {\r\n    uint public userCount = 0;\r\n    uint public patientCount = 0;\r\n\r\n    mapping(string => User) public usersList;\r\n    mapping(uint => Patient) public patientsList;\r\n\r\n    struct User {\r\n        string username;\r\n        string email;\r\n        string password;\r\n    }\r\n\r\n    struct Patient {\r\n        string firstName;\r\n        string lastName;\r\n        uint age;\r\n    }\r\n\r\n    event UserCreated(\r\n        string username,\r\n        string email,\r\n        string password\r\n    );\r\n\r\n    event PatientAdded(\r\n        string firstName,\r\n        string lastName,\r\n        uint age\r\n    );\r\n\r\n    function createUser(string memory _username, string memory _email, string memory _password) public {\r\n        userCount++;\r\n        usersList[_email] = User(_username, _email, _password);\r\n        emit UserCreated(_username, _email, _password);\r\n    }\r\n\r\n    function addPatient(string memory _firstName, string memory _lastName, uint _age) public {\r\n        patientCount++;\r\n        patientsList[patientCount] = Patient(_firstName, _lastName, _age);\r\n        emit PatientAdded(_firstName, _lastName, _age);\r\n    }\r\n}\r\n",
  "sourcePath": "C:\\Users\\ASUS\\PFA4.0\\truffle\\contracts\\Auth.sol",
  "compiler": {
    "name": "solc",
    "version": "0.8.11+commit.d7f03943.Emscripten.clang"
  },
  "schemaVersion": "3.4.4",
  "updatedAt": "2024-02-02T11:34:35.525Z",
  "networkType": "ethereum",
  "devdoc": {
    "kind": "dev",
    "methods": {},
    "version": 1
  },
  "userdoc": {
    "kind": "user",
    "methods": {},
    "version": 1
  }
}